{
  "contractName": "Faucet",
  "abi": [
    {
      "inputs": [],
      "name": "fundersCount",
      "outputs": [
        {
          "internalType": "uint256",
          "name": "",
          "type": "uint256"
        }
      ],
      "stateMutability": "view",
      "type": "function"
    },
    {
      "inputs": [],
      "name": "owner",
      "outputs": [
        {
          "internalType": "address",
          "name": "",
          "type": "address"
        }
      ],
      "stateMutability": "view",
      "type": "function"
    },
    {
      "stateMutability": "payable",
      "type": "receive"
    },
    {
      "inputs": [],
      "name": "addFunds",
      "outputs": [],
      "stateMutability": "payable",
      "type": "function"
    },
    {
      "inputs": [
        {
          "internalType": "uint256",
          "name": "withdrawAmount",
          "type": "uint256"
        }
      ],
      "name": "withdraw",
      "outputs": [],
      "stateMutability": "nonpayable",
      "type": "function"
    },
    {
      "inputs": [],
      "name": "getAllFunders",
      "outputs": [
        {
          "internalType": "address[]",
          "name": "",
          "type": "address[]"
        }
      ],
      "stateMutability": "view",
      "type": "function"
    },
    {
      "inputs": [
        {
          "internalType": "uint8",
          "name": "index",
          "type": "uint8"
        }
      ],
      "name": "getFunderAtIndex",
      "outputs": [
        {
          "internalType": "address",
          "name": "",
          "type": "address"
        }
      ],
      "stateMutability": "view",
      "type": "function"
    }
  ],
  "bytecode": "0x608060405234801561001057600080fd5b50336000806101000a81548173ffffffffffffffffffffffffffffffffffffffff021916908373ffffffffffffffffffffffffffffffffffffffff160217905550610835806100606000396000f3fe6080604052600436106100595760003560e01c80630a93cf331461006557806313a2e117146100a25780632e1a7d4d146100cd5780636fbbb55d146100f65780638da5cb5b14610121578063a26759cb1461014c57610060565b3661006057005b600080fd5b34801561007157600080fd5b5061008c60048036038101906100879190610510565b610156565b60405161009991906105ff565b60405180910390f35b3480156100ae57600080fd5b506100b7610196565b6040516100c4919061065c565b60405180910390f35b3480156100d957600080fd5b506100f460048036038101906100ef91906104e7565b61019c565b005b34801561010257600080fd5b5061010b610233565b604051610118919061061a565b60405180910390f35b34801561012d57600080fd5b50610136610379565b60405161014391906105ff565b60405180910390f35b61015461039d565b005b6000600360008360ff16815260200190815260200160002060009054906101000a900473ffffffffffffffffffffffffffffffffffffffff169050919050565b60015481565b8067016345785d8a00008111156101e8576040517f08c379a00000000000000000000000000000000000000000000000000000000081526004016101df9061063c565b60405180910390fd5b3373ffffffffffffffffffffffffffffffffffffffff166108fc839081150290604051600060405180830381858888f1935050505015801561022e573d6000803e3d6000fd5b505050565b6060600060015467ffffffffffffffff811115610279577f4e487b7100000000000000000000000000000000000000000000000000000000600052604160045260246000fd5b6040519080825280602002602001820160405280156102a75781602001602082028036833780820191505090505b50905060005b600154811015610371576003600082815260200190815260200160002060009054906101000a900473ffffffffffffffffffffffffffffffffffffffff16828281518110610324577f4e487b7100000000000000000000000000000000000000000000000000000000600052603260045260246000fd5b602002602001019073ffffffffffffffffffffffffffffffffffffffff16908173ffffffffffffffffffffffffffffffffffffffff168152505080806103699061070a565b9150506102ad565b508091505090565b60008054906101000a900473ffffffffffffffffffffffffffffffffffffffff1681565b6000339050600260008273ffffffffffffffffffffffffffffffffffffffff1673ffffffffffffffffffffffffffffffffffffffff16815260200190815260200160002060009054906101000a900460ff166104ba576000600160008154809291906104089061070a565b9190505590506001600260008473ffffffffffffffffffffffffffffffffffffffff1673ffffffffffffffffffffffffffffffffffffffff16815260200190815260200160002060006101000a81548160ff021916908315150217905550816003600083815260200190815260200160002060006101000a81548173ffffffffffffffffffffffffffffffffffffffff021916908373ffffffffffffffffffffffffffffffffffffffff160217905550505b50565b6000813590506104cc816107d1565b92915050565b6000813590506104e1816107e8565b92915050565b6000602082840312156104f957600080fd5b6000610507848285016104bd565b91505092915050565b60006020828403121561052257600080fd5b6000610530848285016104d2565b91505092915050565b60006105458383610551565b60208301905092915050565b61055a816106c1565b82525050565b610569816106c1565b82525050565b600061057a82610687565b610584818561069f565b935061058f83610677565b8060005b838110156105c05781516105a78882610539565b97506105b283610692565b925050600181019050610593565b5085935050505092915050565b60006105da6024836106b0565b91506105e582610782565b604082019050919050565b6105f9816106f3565b82525050565b60006020820190506106146000830184610560565b92915050565b60006020820190508181036000830152610634818461056f565b905092915050565b60006020820190508181036000830152610655816105cd565b9050919050565b600060208201905061067160008301846105f0565b92915050565b6000819050602082019050919050565b600081519050919050565b6000602082019050919050565b600082825260208201905092915050565b600082825260208201905092915050565b60006106cc826106d3565b9050919050565b600073ffffffffffffffffffffffffffffffffffffffff82169050919050565b6000819050919050565b600060ff82169050919050565b6000610715826106f3565b91507fffffffffffffffffffffffffffffffffffffffffffffffffffffffffffffffff82141561074857610747610753565b5b600182019050919050565b7f4e487b7100000000000000000000000000000000000000000000000000000000600052601160045260246000fd5b7f43616e6e6f74207769746864726177206d6f7265207468616e20302e3120657460008201527f6865722e00000000000000000000000000000000000000000000000000000000602082015250565b6107da816106f3565b81146107e557600080fd5b50565b6107f1816106fd565b81146107fc57600080fd5b5056fea26469706673582212209228b44d95f57a7cc8e7504bbef616de76dab8acbdd0a915c20d27193c47590664736f6c63430008040033",
  "immutableReferences": {},
  "source": "// SPDX-License-Identifier: MIT\npragma solidity >=0.4.22 <0.9.0;\n\nimport \"./Owned.sol\";\nimport \"./IFaucet.sol\";\n\ncontract Faucet is Owned, IFaucet {\n\n    uint public fundersCount;\n    mapping(address => bool) private funders;\n    mapping(uint => address) private lutFunders;\n\n    modifier limitWithdraw(uint withdrawAmount) {\n\n        require(\n            withdrawAmount <= 100000000000000000, \n            \"Cannot withdraw more than 0.1 ether.\"\n        );\n        _;\n    } \n    \n    receive() external payable {}\n\n    function addFunds() override external payable {\n\n        address funder = msg.sender;\n\n        if(!funders[funder]) {\n            uint index = fundersCount++;\n            funders[funder] = true;\n            lutFunders[index] = funder;\n        }\n    }\n\n    function withdraw(uint withdrawAmount) override external limitWithdraw(withdrawAmount) {\n        payable(msg.sender).transfer(withdrawAmount);\n    }\n\n    function getAllFunders() external view returns (address[] memory) {\n        address[] memory _funders = new address[](fundersCount);\n\n        for(uint i = 0; i < fundersCount; i++) {\n            _funders[i] = lutFunders[i];\n        }\n\n        return _funders;\n    }\n\n    function getFunderAtIndex(uint8 index) external view returns(address) {\n        return lutFunders[index];\n    }\n\n}",
  "sourcePath": "/Users/mariozamora/Desktop/dev/blockchain/faucet/contracts/Faucet.sol",
  "compiler": {
    "name": "solc",
    "version": "0.8.4+commit.c7e474f2.Emscripten.clang"
  },
  "schemaVersion": "3.4.4",
  "updatedAt": "2022-02-12T09:42:52.372Z",
  "devdoc": {
    "kind": "dev",
    "methods": {},
    "version": 1
  },
  "userdoc": {
    "kind": "user",
    "methods": {},
    "version": 1
  }
}